{
  "contractName": "Contact",
  "abi": [
    {
      "inputs": [],
      "stateMutability": "nonpayable",
      "type": "constructor"
    },
    {
      "inputs": [
        {
          "internalType": "string",
          "name": "name",
          "type": "string"
        },
        {
          "internalType": "string",
          "name": "mobile",
          "type": "string"
        },
        {
          "internalType": "string",
          "name": "email",
          "type": "string"
        },
        {
          "internalType": "string",
          "name": "org",
          "type": "string"
        }
      ],
      "name": "insertContact",
      "outputs": [],
      "stateMutability": "nonpayable",
      "type": "function"
    },
    {
      "inputs": [],
      "name": "viewContacts",
      "outputs": [
        {
          "internalType": "string[]",
          "name": "",
          "type": "string[]"
        },
        {
          "internalType": "string[]",
          "name": "",
          "type": "string[]"
        },
        {
          "internalType": "string[]",
          "name": "",
          "type": "string[]"
        },
        {
          "internalType": "string[]",
          "name": "",
          "type": "string[]"
        }
      ],
      "stateMutability": "view",
      "type": "function",
      "constant": true
    }
  ],
  "bytecode": "0x608060405234801561001057600080fd5b50336000806101000a81548173ffffffffffffffffffffffffffffffffffffffff021916908373ffffffffffffffffffffffffffffffffffffffff160217905550610e64806100606000396000f3fe608060405234801561001057600080fd5b50600436106100365760003560e01c80636b845b021461003b5780639bc06fba14610057575b600080fd5b61005560048036038101906100509190610745565b610078565b005b61005f610283565b60405161006f949392919061095d565b60405180910390f35b3373ffffffffffffffffffffffffffffffffffffffff1660008054906101000a900473ffffffffffffffffffffffffffffffffffffffff1673ffffffffffffffffffffffffffffffffffffffff1614610106576040517f08c379a00000000000000000000000000000000000000000000000000000000081526004016100fd90610a41565b60405180910390fd5b6005836040516101169190610a9d565b908152602001604051809103902060009054906101000a900460ff1615610172576040517f08c379a000000000000000000000000000000000000000000000000000000000815260040161016990610b26565b60405180910390fd5b6001849080600181540180825580915050600190039060005260206000200160009091909190915090816101a69190610d5c565b506002839080600181540180825580915050600190039060005260206000200160009091909190915090816101db9190610d5c565b506003829080600181540180825580915050600190039060005260206000200160009091909190915090816102109190610d5c565b506004819080600181540180825580915050600190039060005260206000200160009091909190915090816102459190610d5c565b5060016005846040516102589190610a9d565b908152602001604051809103902060006101000a81548160ff02191690831515021790555050505050565b606080606080600160026003600483805480602002602001604051908101604052809291908181526020016000905b8282101561035e5783829060005260206000200180546102d190610b75565b80601f01602080910402602001604051908101604052809291908181526020018280546102fd90610b75565b801561034a5780601f1061031f5761010080835404028352916020019161034a565b820191906000526020600020905b81548152906001019060200180831161032d57829003601f168201915b5050505050815260200190600101906102b2565b50505050935082805480602002602001604051908101604052809291908181526020016000905b828210156104315783829060005260206000200180546103a490610b75565b80601f01602080910402602001604051908101604052809291908181526020018280546103d090610b75565b801561041d5780601f106103f25761010080835404028352916020019161041d565b820191906000526020600020905b81548152906001019060200180831161040057829003601f168201915b505050505081526020019060010190610385565b50505050925081805480602002602001604051908101604052809291908181526020016000905b8282101561050457838290600052602060002001805461047790610b75565b80601f01602080910402602001604051908101604052809291908181526020018280546104a390610b75565b80156104f05780601f106104c5576101008083540402835291602001916104f0565b820191906000526020600020905b8154815290600101906020018083116104d357829003601f168201915b505050505081526020019060010190610458565b50505050915080805480602002602001604051908101604052809291908181526020016000905b828210156105d757838290600052602060002001805461054a90610b75565b80601f016020809104026020016040519081016040528092919081815260200182805461057690610b75565b80156105c35780601f10610598576101008083540402835291602001916105c3565b820191906000526020600020905b8154815290600101906020018083116105a657829003601f168201915b50505050508152602001906001019061052b565b505050509050935093509350935090919293565b6000604051905090565b600080fd5b600080fd5b600080fd5b600080fd5b6000601f19601f8301169050919050565b7f4e487b7100000000000000000000000000000000000000000000000000000000600052604160045260246000fd5b61065282610609565b810181811067ffffffffffffffff821117156106715761067061061a565b5b80604052505050565b60006106846105eb565b90506106908282610649565b919050565b600067ffffffffffffffff8211156106b0576106af61061a565b5b6106b982610609565b9050602081019050919050565b82818337600083830152505050565b60006106e86106e384610695565b61067a565b90508281526020810184848401111561070457610703610604565b5b61070f8482856106c6565b509392505050565b600082601f83011261072c5761072b6105ff565b5b813561073c8482602086016106d5565b91505092915050565b6000806000806080858703121561075f5761075e6105f5565b5b600085013567ffffffffffffffff81111561077d5761077c6105fa565b5b61078987828801610717565b945050602085013567ffffffffffffffff8111156107aa576107a96105fa565b5b6107b687828801610717565b935050604085013567ffffffffffffffff8111156107d7576107d66105fa565b5b6107e387828801610717565b925050606085013567ffffffffffffffff811115610804576108036105fa565b5b61081087828801610717565b91505092959194509250565b600081519050919050565b600082825260208201905092915050565b6000819050602082019050919050565b600081519050919050565b600082825260208201905092915050565b60005b83811015610882578082015181840152602081019050610867565b60008484015250505050565b600061089982610848565b6108a38185610853565b93506108b3818560208601610864565b6108bc81610609565b840191505092915050565b60006108d3838361088e565b905092915050565b6000602082019050919050565b60006108f38261081c565b6108fd8185610827565b93508360208202850161090f85610838565b8060005b8581101561094b578484038952815161092c85826108c7565b9450610937836108db565b925060208a01995050600181019050610913565b50829750879550505050505092915050565b6000608082019050818103600083015261097781876108e8565b9050818103602083015261098b81866108e8565b9050818103604083015261099f81856108e8565b905081810360608301526109b381846108e8565b905095945050505050565b600082825260208201905092915050565b7f4f6e6c7920746865206f776e65722063616e20706572666f726d20746869732060008201527f616374696f6e0000000000000000000000000000000000000000000000000000602082015250565b6000610a2b6026836109be565b9150610a36826109cf565b604082019050919050565b60006020820190508181036000830152610a5a81610a1e565b9050919050565b600081905092915050565b6000610a7782610848565b610a818185610a61565b9350610a91818560208601610864565b80840191505092915050565b6000610aa98284610a6c565b915081905092915050565b7f436f6e7461637420776974682074686973206d6f62696c6520616c726561647960008201527f2065786973747300000000000000000000000000000000000000000000000000602082015250565b6000610b106027836109be565b9150610b1b82610ab4565b604082019050919050565b60006020820190508181036000830152610b3f81610b03565b9050919050565b7f4e487b7100000000000000000000000000000000000000000000000000000000600052602260045260246000fd5b60006002820490506001821680610b8d57607f821691505b602082108103610ba057610b9f610b46565b5b50919050565b60008190508160005260206000209050919050565b60006020601f8301049050919050565b600082821b905092915050565b600060088302610c087fffffffffffffffffffffffffffffffffffffffffffffffffffffffffffffffff82610bcb565b610c128683610bcb565b95508019841693508086168417925050509392505050565b6000819050919050565b6000819050919050565b6000610c59610c54610c4f84610c2a565b610c34565b610c2a565b9050919050565b6000819050919050565b610c7383610c3e565b610c87610c7f82610c60565b848454610bd8565b825550505050565b600090565b610c9c610c8f565b610ca7818484610c6a565b505050565b5b81811015610ccb57610cc0600082610c94565b600181019050610cad565b5050565b601f821115610d1057610ce181610ba6565b610cea84610bbb565b81016020851015610cf9578190505b610d0d610d0585610bbb565b830182610cac565b50505b505050565b600082821c905092915050565b6000610d3360001984600802610d15565b1980831691505092915050565b6000610d4c8383610d22565b9150826002028217905092915050565b610d6582610848565b67ffffffffffffffff811115610d7e57610d7d61061a565b5b610d888254610b75565b610d93828285610ccf565b600060209050601f831160018114610dc65760008415610db4578287015190505b610dbe8582610d40565b865550610e26565b601f198416610dd486610ba6565b60005b82811015610dfc57848901518255600182019150602085019450602081019050610dd7565b86831015610e195784890151610e15601f891682610d22565b8355505b6001600288020188555050505b50505050505056fea2646970667358221220075ea8c143057bb21362d246dcc325f9e07fed0f810b4ad8782fdddd93e53bdd64736f6c63430008130033",
  "immutableReferences": {},
  "source": "// SPDX-License-Identifier: MIT\npragma solidity >=0.4.22 <0.9.0;\n\ncontract Contact {\n    address owner;\n    string[] names;\n    string[] mobiles;\n    string[] emails;\n    string[] organizations;\n    mapping(string => bool) _contacts;\n\n    constructor() {\n        owner = msg.sender;\n    }\n\n    modifier onlyOwner {\n        require(owner == msg.sender, \"Only the owner can perform this action\");\n        _;\n    }\n\n    function insertContact(\n        string memory name,\n        string memory mobile,\n        string memory email,\n        string memory org\n    ) public onlyOwner {\n        require(!_contacts[mobile], \"Contact with this mobile already exists\");\n        names.push(name);\n        mobiles.push(mobile);\n        emails.push(email);\n        organizations.push(org);\n        _contacts[mobile] = true;\n    }\n\n    function viewContacts()\n        public\n        view\n        returns (\n            string[] memory,\n            string[] memory,\n            string[] memory,\n            string[] memory\n        )\n    {\n        return (names, mobiles, emails, organizations);\n    }\n}\n",
  "sourcePath": "C:\\Users\\Lenovo\\Desktop\\ContactDaap\\contracts\\contact.sol",
  "compiler": {
    "name": "solc",
    "version": "0.8.19+commit.7dd6d404.Emscripten.clang"
  },
  "schemaVersion": "3.4.16",
  "updatedAt": "2024-09-27T06:26:39.099Z",
  "networkType": "ethereum",
  "devdoc": {
    "kind": "dev",
    "methods": {},
    "version": 1
  },
  "userdoc": {
    "kind": "user",
    "methods": {},
    "version": 1
  }
}